S01C000031325F456E636F6465725265706C6163655F76322E73726563C3
S1130000A6C00000B6C00000B4C00000B2C000002A
S1130010B0C00000AEC00000ACC00000AAC0000028
S1130020A8C00000A6C00000A4C00000A2C0000038
S1130030A0C000009EC000009CC000009AC0000048
S113004098C0000096C0000094C0000092C0000058
S113005090C000008EC000008CC000008AC0000068
S113006088C00000B5C0000084C0000082C0000049
S113007080C000007EC000007CC000007AC0000088
S113008078C0000076C0000074C0000072C0000098
S113009070C000006EC000006CC000006AC00000A8
S11300A068C0000066C0000064C0000062C00000B8
S11300B060C000005EC000005CC000005AC00000C8
S11300C058C0000056C0000054C0000052C00000D8
S11300D050C000004EC000004CC000004AC00000E8
S11300E048C00000CF00CD00CD00CD00CF00CD0032
S11300F0CD00CD00CF00CD00CD00CD00CD00CD0092
S1130100CF00CD00CD00C700CD00CD00CF00CD0085
S1130110CD00CD00CD00CD00CD00CD00CD00CD0073
S1130120CD00CD00CF00CD00CD00CD00CF00CD005F
S1130130CD00CD00CF00CD00CD00CD00CD00CD0051
S1130140CF00CD00CD00CA00CD00CD00CF001124DA
S11301501FBECFEFD1E2DEBFCDBF00E00CBF22E077
S1130160A0E0B2E001C01D92A230B207E1F72ED0A8
S1130170DBC046CF282F90E0FC01E154F109E533C0
S1130180F10558F48827EE58FF4F8F4FC5C08CE413
S11301909AC008958CE697C00895822F94C008955C
S11301A09093010280930002089521E042E060E808
S11301B075E280E090E039D0E1ECF0E08081806885
S11301C080838AEB90E0ECDF78940895EEDFFFCF34
S11301D01F920F920FB60F9211240BB60F922F930A
S11301E03F934F935F936F937F938F939F93AF93BB
S11301F0BF93EF93FF938091C600E0910002F091CA
S113020001021995FF91EF91BF91AF919F918F9149
S11302107F916F915F914F913F912F910F900BBE02
S11302200F900FBE0F901F9018951092C00010925F
S1130230C100413051F018F0423069F011C0E1ECD6
S1130240F0E03081306130830BC0E1ECF0E03081CC
S11302503860308305C0E1ECF0E0308138613083F0
S11302603EE03093C200213019F0223039F00BC047
S1130270E2ECF0E020812062208305C0E2ECF0E0B3
S1130280208120632083DC01CB01880F991FAA1FE2
S1130290BB1F880F991FAA1FBB1F9C01AD01220F12
S11302A0331F441F551F220F331F441F551F60E087
S11302B074E284EF90E00ED0215031093093C500F0
S11302C02093C40008959091C00095FFFCCF8093C3
S11302D0C6000895A1E21A2EAA1BBB1BFD010DC086
S11302E0AA1FBB1FEE1FFF1FA217B307E407F507E2
S11302F020F0A21BB30BE40BF50B661F771F881FBE
S1130300991F1A9469F760957095809590959B0153
S1130310AC01BD01CF010895EE0FFF1F881F8BBFF5
S10F03200790F691E02D1994F894FFCF9B
S9030000FC
